:100000000C942A001895000018950000189500001F
:10001000189500001895000018950000189500002C
:10002000189500001895000018950000189500001C
:10003000189500001895000018950000189500000C
:1000400018950000189500001895000018950000FC
:10005000189500008FE58DBFC8E3E0E24E2E88E0E2
:100060008EBFD8E0F8E05F2EA89584B7082E877F72
:1000700084BF88E1992781BD91BDEEEFF7E0A0E64E
:10008000B0E088278D933197E9F70E940A02662431
:100090008CE00E9458020E94EF01E6EBF0E080E461
:1000A0000E94580258E0C895802D0E945202319655
:1000B0005A95C9F704C0E8F4E8E3E4E4E3E080E03B
:1000C000E9E30E949503A9E6B0E0EEE8F0E098E0ED
:1000D0000E94960480E0E9E30E949A03A2E7B0E060
:1000E000EEE8F0E098E00E94960480E0E9E30E94E8
:1000F0009A03AAE7B0E0EEE8F0E098E00E949604E8
:1001000080E0E9E30E949A03A2E8B0E0EEE8F0E0C4
:1001100098E00E9496040E94EF018FE711E00E9490
:10012000FE01E6E3F9E00E94E8018FEB11E00E9496
:10013000FE01E6E4F9E00E94E801E2E0F0E00E945E
:1001400001020E94EF0184EF91E00E94850280E0AD
:10015000E9E30E94FC025CEC80E0E9E30E942403F6
:1001600054E480E0E9E30E9424038EEE92E00E94D2
:10017000850280E0E9E30E94FC0255E580E0E9E3C6
:100180000E94240380E0E9E3A9E6B0E00E940A04AB
:100190005EEB80E0E9E30E94240380E0A7E6B0E0A4
:1001A000E9E322E02A930E9449030E9471018FE74C
:1001B00011E00E94FE01EAE5F9E00E94E801A0E6F4
:1001C000B0E00E94E20180E00E94520280E0E9E398
:1001D0000E94FC0255E580E0E9E30E94240380E0F0
:1001E000E9E3A2E7B0E00E940A045EEB80E0E9E305
:1001F0000E94240380E0A7E6B0E0E9E322E02A932E
:100200000E9449030E9471018FE719E00E94FE01DC
:10021000EEE5F9E00E94E801A0E6B0E00E94E2010C
:1002200080E00E94520280E0E9E30E94FC0255E572
:1002300080E0E9E30E94240380E0E9E3AAE7B0E07C
:100240000E940A045EEB80E0E9E30E94240380E060
:10025000A7E6B0E0E9E322E02A930E9449030E9466
:1002600071018FEB11E00E94FE01E2E6F9E00E94CD
:10027000E801A0E6B0E00E94E20180E00E945202A4
:1002800080E0E9E30E94FC0255E580E0E9E30E949A
:10029000240380E0E9E3A2E8B0E00E940A045EEBF8
:1002A00080E0E9E30E94240380E0A7E6B0E0E9E310
:1002B00022E02A930E9449030E9471018FEB19E00A
:1002C0000E94FE01E6E6F9E00E94E801A0E6B0E047
:1002D0000E94E20180E00E9452020C94A700F89470
:1002E000FFCFA7E6B0E00D911C914AE050E00E94DC
:1002F0009902A7E6B0E00D931C93A7E6B0E00D913C
:100300001C9140E150E00E94A601A7E6B0E04D93A9
:100310005C93E7E6F0E0A0E6B0E00E944404E0E68B
:10032000F0E0A8E0B8E00E949004E8E0F8E0A0E681
:10033000B0E01127222702E031E00E94B7020895C1
:1003400009D00E94990200FC10D0089503D01ED05D
:1003500001F8F9CF0024E89457FF02C009D068944F
:1003600000F80BD010F80124089502D009D00895A8
:10037000509540954F5F5F4F0895E89417FF08959B
:10038000009510950F5F1F4F68940895352F242F07
:10039000E894452B11F468940895512F402F0027BD
:1003A000112780E1440F551F001F111F021B130B63
:1003B000416018F4020F131F4E7F8A9599F7089534
:1003C000A8E0B8E08D91882311F06CD0FBCF0895A0
:1003D0000E94A302802D11F065D0FACF089581E02C
:1003E00067D015D080E864C08FE7213039F08FEBFB
:1003F000223021F08FE8233009F08FEC810F0C942C
:10040000580288EE93E081D03197D9F7089583E0C0
:1004100099277BC08AEF90E00E948502A79AA69A4E
:10042000A59AA49AA29AA09AA89885E090E00E9422
:100430008502AA98AF98AE98AD9AAC9AAA9AEF9313
:10044000FF93E5E1F0E00E947902FF91EF91AA9815
:1004500059D0AA9AEF93FF93E5E1F0E00E94790268
:10046000FF91EF91AA984ED0AA9AEF93FF93E5E1FE
:10047000F0E00E947902FF91EF91AA9843D0AC98E6
:10048000AA9AEF93FF93E5E1F0E00E947902FF91D1
:10049000EF91AA9837D088E20BD08EE009D086E0A1
:1004A00007D00895A89A829505D004D02BD008953E
:1004B000A898F9CF859510F4AC9A01C0AC988595B1
:1004C00010F4AD9A01C0AD98859510F4AE9A01C0B4
:1004D000AE98859510F4AF9A01C0AF98AA9AEF93A1
:1004E000FF93E5E1F0E00E947902FF91EF91AA9875
:1004F00008953197F1F70895689462F80895E894A3
:1005000062F8089581E090E000C0EF93FF93EE273A
:10051000E82BE92B31F0EAEFF0E03197F1F70197A2
:10052000D1F7FF91EF9108950191119121913081BF
:1005300008950F92B801469F8001479F100D569F66
:10054000100D0F900895C89531960020089591E000
:10055000882321F08894991F8A95E9F7892F90952F
:100560000895883018F011968850FBCF08952E2EEC
:100570003F2E992781918D3209F093958823D1F7E9
:100580009A95E22DF32D112361F0091718F011F05F
:10059000101B01C0191B28F021F080E28D931A95E1
:1005A000E9F780818D3219F48D93319604C02223AE
:1005B00011F08BE28D93091738F031F0091B21F00F
:1005C00080E38D930A95E9F781918D938823E1F774
:1005D000332351F0EA2FFB2F319633958E9182937E
:1005E0003A95E1F78EE28C9308950181082B0183FF
:1005F00012811923128308950E947F02FF270E940F
:10060000A702F3DFEF93FF93E4E7F0E00E947902A3
:10061000FF91EF91182B128309230183EF93FF932E
:10062000EEE0F0E00E947902FF91EF911081182333
:1006300011F00E947C02EF93FF93E3E6F0E00E944A
:100640007902FF91EF9108950E94A702FF2721E010
:1006500048E006C00E94A702FF2729915D9148E06B
:10066000C4DF579510F4182B1283EF93FF93EAE041
:10067000F0E00E947902FF91EF91182B1283EF9323
:10068000E2E0EA95F1F7EF914A9551F72A9531F7B3
:1006900008950E94A702FF27299148E05527A5DF6A
:1006A00009230183EF93E1E0EA95F1F7EF91889454
:1006B0001081182309F008945795EF93FF93EAE00F
:1006C000F0E00E947902FF91EF914A9541F75D9326
:1006D0002A9519F7089589DF09230183EF93E1E053
:1006E000EA95F1F7EF91E8941081182309F06894E6
:1006F000EF93FF93EAE0F0E00E947902FF91EF911F
:10070000089573DF16F4182B1283EF93FF93EAE03A
:10071000F0E00E947902FF91EF91182B1283EF9382
:10072000E2E0EA95F1F7EF910895332730938D00D9
:1007300030938A0061DF0EF458C030918A0030FD9A
:1007400054C0662760938C00639560938B0021E012
:1007500050EF48E085DFBFDF31F9BDDF32F9632FAD
:100760006670663009F441C0603019F031FB40D04A
:1007700025C060918B0070918D006717B1F0C0F4B7
:100780008F939F93862F8A95AEE8B0E0EADEDFDE96
:100790007C9178236894772329F4E89460918B0006
:1007A00060938C009F918F9109C0689421D006C0FE
:1007B000E8941ED060918B0060938C00A2DF609162
:1007C0008B00639560938B00613409F0C4CF609116
:1007D0008C0060938D006623E89409F4689430F9E6
:1007E00030938A00E89462F80895689462F8089556
:1007F0008F939F93AEE8B0E080918B008A95B1DE35
:10080000A6DE7C9116F4782B01C079237C939F910E
:100810008F910895AF93BF93EF93FF9338E0EEE885
:10082000F0E00D9101933A95E1F7FF91EF9130E4FB
:1008300030938D00332730938A007CDF38E0BF91FE
:10084000AF91EEE8F0E00D914191041719F43A955B
:10085000D1F708950E947C020895000F111F221FF6
:10086000331F089500951095209530950F5F1F4F09
:100870002F4F3F4F0895019110810FC00E949402A5
:100880000EC00E94940210C00191108117FF05C094
:100890003FEF2FEF04C0008111272227332737FFB6
:1008A00003C0E0DF8DE28D93CF92DF92EF92AA2416
:1008B000BB24CC24DD24EE2440E2EAE0FF2755E00F
:1008C00093E38081890F87FD9F7083FD907F891B53
:1008D00081935A95A9F7C1DFAA1CBB1CCC1CDD1C57
:1008E000EE1C4A9551F7E894EFE0FF2782910BD078
:1008F000EB30E0F71EF068948A2D09D04D93EF900D
:10090000DF90CF900895982F829501D0892F8F7016
:10091000805D26F0803309F4089568948D930895DE
:1009200081918D938823E1F7089594E081918D93CF
:100930009A95E1F70895202020546865726D6F6DD7
:10094000657465720000202D2D2D2D2D2D2D2D2D42
:100950002D2D2D2D2D2D2D2D2D00313A0000323A2B
:0A0960000000333A0000343A0000B2
:00000001FF
